{
  "_format": "hh3-artifact-1",
  "contractName": "ImageRegistry",
  "sourceName": "contracts/ImageRegistry.sol",
  "abi": [
    {
      "anonymous": false,
      "inputs": [
        {
          "indexed": false,
          "internalType": "string",
          "name": "imageName",
          "type": "string"
        },
        {
          "indexed": false,
          "internalType": "string",
          "name": "imageHash",
          "type": "string"
        },
        {
          "indexed": false,
          "internalType": "address",
          "name": "owner",
          "type": "address"
        }
      ],
      "name": "ImageRegistered",
      "type": "event"
    },
    {
      "inputs": [
        {
          "internalType": "string",
          "name": "_name",
          "type": "string"
        },
        {
          "internalType": "string",
          "name": "_hash",
          "type": "string"
        }
      ],
      "name": "registerImage",
      "outputs": [],
      "stateMutability": "nonpayable",
      "type": "function"
    },
    {
      "inputs": [
        {
          "internalType": "string",
          "name": "_name",
          "type": "string"
        }
      ],
      "name": "verifyImage",
      "outputs": [
        {
          "internalType": "string",
          "name": "",
          "type": "string"
        },
        {
          "internalType": "address",
          "name": "",
          "type": "address"
        }
      ],
      "stateMutability": "view",
      "type": "function"
    }
  ],
  "bytecode": "0x6080604052348015600e575f5ffd5b506109848061001c5f395ff3fe608060405234801561000f575f5ffd5b5060043610610034575f3560e01c80632321463c14610038578063e62a880a14610069575b5f5ffd5b610052600480360381019061004d91906103f4565b610085565b6040516100609291906104da565b60405180910390f35b610083600480360381019061007e9190610508565b610176565b005b60605f5f8360405161009791906105b8565b90815260200160405180910390206001846040516100b591906105b8565b90815260200160405180910390205f9054906101000a900473ffffffffffffffffffffffffffffffffffffffff168180546100ef906105fb565b80601f016020809104026020016040519081016040528092919081815260200182805461011b906105fb565b80156101665780601f1061013d57610100808354040283529160200191610166565b820191905f5260205f20905b81548152906001019060200180831161014957829003601f168201915b5050505050915091509150915091565b5f5f8360405161018691906105b8565b9081526020016040518091039020805461019f906105fb565b9050146101e1576040517f08c379a00000000000000000000000000000000000000000000000000000000081526004016101d890610675565b60405180910390fd5b805f836040516101f191906105b8565b9081526020016040518091039020908161020b919061083c565b503360018360405161021d91906105b8565b90815260200160405180910390205f6101000a81548173ffffffffffffffffffffffffffffffffffffffff021916908373ffffffffffffffffffffffffffffffffffffffff1602179055507f8fa36fbe5bbebf3b390fed45445c8636eb65f5d2555923d24a14cfa77003414782823360405161029b9392919061090b565b60405180910390a15050565b5f604051905090565b5f5ffd5b5f5ffd5b5f5ffd5b5f5ffd5b5f601f19601f8301169050919050565b7f4e487b71000000000000000000000000000000000000000000000000000000005f52604160045260245ffd5b610306826102c0565b810181811067ffffffffffffffff82111715610325576103246102d0565b5b80604052505050565b5f6103376102a7565b905061034382826102fd565b919050565b5f67ffffffffffffffff821115610362576103616102d0565b5b61036b826102c0565b9050602081019050919050565b828183375f83830152505050565b5f61039861039384610348565b61032e565b9050828152602081018484840111156103b4576103b36102bc565b5b6103bf848285610378565b509392505050565b5f82601f8301126103db576103da6102b8565b5b81356103eb848260208601610386565b91505092915050565b5f60208284031215610409576104086102b0565b5b5f82013567ffffffffffffffff811115610426576104256102b4565b5b610432848285016103c7565b91505092915050565b5f81519050919050565b5f82825260208201905092915050565b8281835e5f83830152505050565b5f61046d8261043b565b6104778185610445565b9350610487818560208601610455565b610490816102c0565b840191505092915050565b5f73ffffffffffffffffffffffffffffffffffffffff82169050919050565b5f6104c48261049b565b9050919050565b6104d4816104ba565b82525050565b5f6040820190508181035f8301526104f28185610463565b905061050160208301846104cb565b9392505050565b5f5f6040838503121561051e5761051d6102b0565b5b5f83013567ffffffffffffffff81111561053b5761053a6102b4565b5b610547858286016103c7565b925050602083013567ffffffffffffffff811115610568576105676102b4565b5b610574858286016103c7565b9150509250929050565b5f81905092915050565b5f6105928261043b565b61059c818561057e565b93506105ac818560208601610455565b80840191505092915050565b5f6105c38284610588565b915081905092915050565b7f4e487b71000000000000000000000000000000000000000000000000000000005f52602260045260245ffd5b5f600282049050600182168061061257607f821691505b602082108103610625576106246105ce565b5b50919050565b7f496d61676520616c7265616479207265676973746572656421000000000000005f82015250565b5f61065f601983610445565b915061066a8261062b565b602082019050919050565b5f6020820190508181035f83015261068c81610653565b9050919050565b5f819050815f5260205f209050919050565b5f6020601f8301049050919050565b5f82821b905092915050565b5f600883026106ef7fffffffffffffffffffffffffffffffffffffffffffffffffffffffffffffffff826106b4565b6106f986836106b4565b95508019841693508086168417925050509392505050565b5f819050919050565b5f819050919050565b5f61073d61073861073384610711565b61071a565b610711565b9050919050565b5f819050919050565b61075683610723565b61076a61076282610744565b8484546106c0565b825550505050565b5f5f905090565b610781610772565b61078c81848461074d565b505050565b5b818110156107af576107a45f82610779565b600181019050610792565b5050565b601f8211156107f4576107c581610693565b6107ce846106a5565b810160208510156107dd578190505b6107f16107e9856106a5565b830182610791565b50505b505050565b5f82821c905092915050565b5f6108145f19846008026107f9565b1980831691505092915050565b5f61082c8383610805565b9150826002028217905092915050565b6108458261043b565b67ffffffffffffffff81111561085e5761085d6102d0565b5b61086882546105fb565b6108738282856107b3565b5f60209050601f8311600181146108a4575f8415610892578287015190505b61089c8582610821565b865550610903565b601f1984166108b286610693565b5f5b828110156108d9578489015182556001820191506020850194506020810190506108b4565b868310156108f657848901516108f2601f891682610805565b8355505b6001600288020188555050505b505050505050565b5f6060820190508181035f8301526109238186610463565b905081810360208301526109378185610463565b905061094660408301846104cb565b94935050505056fea264697066735822122018db39b39c50da887106297ca865e8d4447756d564e743a096ed9a79e2ef73e964736f6c634300081c0033",
  "linkReferences": {},
  "deployedLinkReferences": {},
  "immutableReferences": {},
  "inputSourceName": "project/contracts/ImageRegistry.sol",
  "buildInfoId": "solc-0_8_28-e6b8c0e42c266bdd7d8fb65134dc059c00c8fda6"
}